{
  "_format": "hh-sol-artifact-1",
  "contractName": "Marketplace",
  "sourceName": "src/backend/contracts/Marketplace.sol",
  "abi": [
    {
      "inputs": [
        {
          "internalType": "uint256",
          "name": "_feePercent",
          "type": "uint256"
        }
      ],
      "stateMutability": "nonpayable",
      "type": "constructor"
    },
    {
      "anonymous": false,
      "inputs": [
        {
          "indexed": false,
          "internalType": "uint256",
          "name": "itemId",
          "type": "uint256"
        },
        {
          "indexed": true,
          "internalType": "address",
          "name": "nft",
          "type": "address"
        },
        {
          "indexed": false,
          "internalType": "uint256",
          "name": "tokenId",
          "type": "uint256"
        },
        {
          "indexed": false,
          "internalType": "uint256",
          "name": "price",
          "type": "uint256"
        },
        {
          "indexed": true,
          "internalType": "address",
          "name": "seller",
          "type": "address"
        },
        {
          "indexed": true,
          "internalType": "address",
          "name": "buyer",
          "type": "address"
        }
      ],
      "name": "Bought",
      "type": "event"
    },
    {
      "anonymous": false,
      "inputs": [
        {
          "indexed": false,
          "internalType": "uint256",
          "name": "itemId",
          "type": "uint256"
        },
        {
          "indexed": true,
          "internalType": "address",
          "name": "nft",
          "type": "address"
        },
        {
          "indexed": false,
          "internalType": "uint256",
          "name": "tokenId",
          "type": "uint256"
        },
        {
          "indexed": false,
          "internalType": "uint256",
          "name": "price",
          "type": "uint256"
        },
        {
          "indexed": true,
          "internalType": "address",
          "name": "seller",
          "type": "address"
        }
      ],
      "name": "Offered",
      "type": "event"
    },
    {
      "inputs": [
        {
          "internalType": "contract IERC721",
          "name": "_nft",
          "type": "address"
        },
        {
          "internalType": "uint256",
          "name": "_tokenId",
          "type": "uint256"
        },
        {
          "internalType": "uint256",
          "name": "_price",
          "type": "uint256"
        }
      ],
      "name": "createItem",
      "outputs": [],
      "stateMutability": "nonpayable",
      "type": "function"
    },
    {
      "inputs": [],
      "name": "feeAccount",
      "outputs": [
        {
          "internalType": "address payable",
          "name": "",
          "type": "address"
        }
      ],
      "stateMutability": "view",
      "type": "function"
    },
    {
      "inputs": [],
      "name": "feePercent",
      "outputs": [
        {
          "internalType": "uint256",
          "name": "",
          "type": "uint256"
        }
      ],
      "stateMutability": "view",
      "type": "function"
    },
    {
      "inputs": [
        {
          "internalType": "uint256",
          "name": "_itemId",
          "type": "uint256"
        }
      ],
      "name": "getTotalPrice",
      "outputs": [
        {
          "internalType": "uint256",
          "name": "",
          "type": "uint256"
        }
      ],
      "stateMutability": "view",
      "type": "function"
    },
    {
      "inputs": [],
      "name": "itemCount",
      "outputs": [
        {
          "internalType": "uint256",
          "name": "",
          "type": "uint256"
        }
      ],
      "stateMutability": "view",
      "type": "function"
    },
    {
      "inputs": [
        {
          "internalType": "uint256",
          "name": "",
          "type": "uint256"
        }
      ],
      "name": "items",
      "outputs": [
        {
          "internalType": "uint256",
          "name": "itemId",
          "type": "uint256"
        },
        {
          "internalType": "contract IERC721",
          "name": "nft",
          "type": "address"
        },
        {
          "internalType": "uint256",
          "name": "tokenId",
          "type": "uint256"
        },
        {
          "internalType": "uint256",
          "name": "price",
          "type": "uint256"
        },
        {
          "internalType": "address payable",
          "name": "seller",
          "type": "address"
        },
        {
          "internalType": "bool",
          "name": "sold",
          "type": "bool"
        }
      ],
      "stateMutability": "view",
      "type": "function"
    },
    {
      "inputs": [
        {
          "internalType": "uint256",
          "name": "_itemId",
          "type": "uint256"
        }
      ],
      "name": "purchaseItem",
      "outputs": [],
      "stateMutability": "payable",
      "type": "function"
    }
  ],
  "bytecode": "0x60c060405234801561001057600080fd5b5060405161119f38038061119f83398181016040528101906100329190610094565b60016000819055503373ffffffffffffffffffffffffffffffffffffffff1660808173ffffffffffffffffffffffffffffffffffffffff1660601b815250508060a08181525050506100de565b60008151905061008e816100c7565b92915050565b6000602082840312156100a657600080fd5b60006100b48482850161007f565b91505092915050565b6000819050919050565b6100d0816100bd565b81146100db57600080fd5b50565b60805160601c60a05161108b610114600039600081816104b8015261056901526000818161048e015261078f015261108b6000f3fe6080604052600436106100705760003560e01c80637fd6f15c1161004e5780637fd6f15c146100f4578063bfb231d21461011f578063ca7dd37514610161578063d38ea5bf1461019e57610070565b806357baf0fb1461007557806365e17c9d1461009e5780636bfb0d01146100c9575b600080fd5b34801561008157600080fd5b5061009c600480360381019061009791906109c0565b6101ba565b005b3480156100aa57600080fd5b506100b361048c565b6040516100c09190610b32565b60405180910390f35b3480156100d557600080fd5b506100de6104b0565b6040516100eb9190610c24565b60405180910390f35b34801561010057600080fd5b506101096104b6565b6040516101169190610c24565b60405180910390f35b34801561012b57600080fd5b5061014660048036038101906101419190610a0f565b6104da565b60405161015896959493929190610c3f565b60405180910390f35b34801561016d57600080fd5b5061018860048036038101906101839190610a0f565b610563565b6040516101959190610c24565b60405180910390f35b6101b860048036038101906101b39190610a0f565b6105c6565b005b60026000541415610200576040517f08c379a00000000000000000000000000000000000000000000000000000000081526004016101f790610c04565b60405180910390fd5b60026000819055506000811161024b576040517f08c379a000000000000000000000000000000000000000000000000000000000815260040161024290610be4565b60405180910390fd5b6001600081548092919061025e90610e8d565b91905055508273ffffffffffffffffffffffffffffffffffffffff166323b872dd3330856040518463ffffffff1660e01b81526004016102a093929190610b4d565b600060405180830381600087803b1580156102ba57600080fd5b505af11580156102ce573d6000803e3d6000fd5b505050506040518060c0016040528060015481526020018473ffffffffffffffffffffffffffffffffffffffff1681526020018381526020018281526020013373ffffffffffffffffffffffffffffffffffffffff168152602001600015158152506002600060015481526020019081526020016000206000820151816000015560208201518160010160006101000a81548173ffffffffffffffffffffffffffffffffffffffff021916908373ffffffffffffffffffffffffffffffffffffffff160217905550604082015181600201556060820151816003015560808201518160040160006101000a81548173ffffffffffffffffffffffffffffffffffffffff021916908373ffffffffffffffffffffffffffffffffffffffff16021790555060a08201518160040160146101000a81548160ff0219169083151502179055509050503373ffffffffffffffffffffffffffffffffffffffff168373ffffffffffffffffffffffffffffffffffffffff167f655a0cf9c8db81512be9a76dc1c5ae5380b8816ce6ad659cd61b715e2999d59a600154858560405161047793929190610ca0565b60405180910390a36001600081905550505050565b7f000000000000000000000000000000000000000000000000000000000000000081565b60015481565b7f000000000000000000000000000000000000000000000000000000000000000081565b60026020528060005260406000206000915090508060000154908060010160009054906101000a900473ffffffffffffffffffffffffffffffffffffffff16908060020154908060030154908060040160009054906101000a900473ffffffffffffffffffffffffffffffffffffffff16908060040160149054906101000a900460ff16905086565b600060647f000000000000000000000000000000000000000000000000000000000000000060646105949190610ce8565b60026000858152602001908152602001600020600301546105b59190610d6f565b6105bf9190610d3e565b9050919050565b6002600054141561060c576040517f08c379a000000000000000000000000000000000000000000000000000000000815260040161060390610c04565b60405180910390fd5b6002600081905550600061061f82610563565b9050600060026000848152602001908152602001600020905060008311801561064a57506001548311155b610689576040517f08c379a000000000000000000000000000000000000000000000000000000000815260040161068090610bc4565b60405180910390fd5b813410156106cc576040517f08c379a00000000000000000000000000000000000000000000000000000000081526004016106c390610b84565b60405180910390fd5b8060040160149054906101000a900460ff161561071e576040517f08c379a000000000000000000000000000000000000000000000000000000000815260040161071590610ba4565b60405180910390fd5b8060040160009054906101000a900473ffffffffffffffffffffffffffffffffffffffff1673ffffffffffffffffffffffffffffffffffffffff166108fc82600301549081150290604051600060405180830381858888f1935050505015801561078c573d6000803e3d6000fd5b507f000000000000000000000000000000000000000000000000000000000000000073ffffffffffffffffffffffffffffffffffffffff166108fc8260030154846107d79190610dc9565b9081150290604051600060405180830381858888f19350505050158015610802573d6000803e3d6000fd5b5060018160040160146101000a81548160ff0219169083151502179055508060010160009054906101000a900473ffffffffffffffffffffffffffffffffffffffff1673ffffffffffffffffffffffffffffffffffffffff166323b872dd303384600201546040518463ffffffff1660e01b815260040161088593929190610b4d565b600060405180830381600087803b15801561089f57600080fd5b505af11580156108b3573d6000803e3d6000fd5b505050503373ffffffffffffffffffffffffffffffffffffffff168160040160009054906101000a900473ffffffffffffffffffffffffffffffffffffffff1673ffffffffffffffffffffffffffffffffffffffff168260010160009054906101000a900473ffffffffffffffffffffffffffffffffffffffff1673ffffffffffffffffffffffffffffffffffffffff167f8b4c9c8a607d67b321582dd8461041b1dc2ceeca70c8b7f37f8e02095cf2e76d6001548560020154866003015460405161098193929190610ca0565b60405180910390a45050600160008190555050565b6000813590506109a581611027565b92915050565b6000813590506109ba8161103e565b92915050565b6000806000606084860312156109d557600080fd5b60006109e386828701610996565b93505060206109f4868287016109ab565b9250506040610a05868287016109ab565b9150509250925092565b600060208284031215610a2157600080fd5b6000610a2f848285016109ab565b91505092915050565b610a4181610e0f565b82525050565b610a5081610dfd565b82525050565b610a5f81610e21565b82525050565b610a6e81610e69565b82525050565b6000610a81602a83610cd7565b9150610a8c82610f34565b604082019050919050565b6000610aa4601a83610cd7565b9150610aaf82610f83565b602082019050919050565b6000610ac7601183610cd7565b9150610ad282610fac565b602082019050919050565b6000610aea601c83610cd7565b9150610af582610fd5565b602082019050919050565b6000610b0d601f83610cd7565b9150610b1882610ffe565b602082019050919050565b610b2c81610e5f565b82525050565b6000602082019050610b476000830184610a38565b92915050565b6000606082019050610b626000830186610a47565b610b6f6020830185610a47565b610b7c6040830184610b23565b949350505050565b60006020820190508181036000830152610b9d81610a74565b9050919050565b60006020820190508181036000830152610bbd81610a97565b9050919050565b60006020820190508181036000830152610bdd81610aba565b9050919050565b60006020820190508181036000830152610bfd81610add565b9050919050565b60006020820190508181036000830152610c1d81610b00565b9050919050565b6000602082019050610c396000830184610b23565b92915050565b600060c082019050610c546000830189610b23565b610c616020830188610a65565b610c6e6040830187610b23565b610c7b6060830186610b23565b610c886080830185610a38565b610c9560a0830184610a56565b979650505050505050565b6000606082019050610cb56000830186610b23565b610cc26020830185610b23565b610ccf6040830184610b23565b949350505050565b600082825260208201905092915050565b6000610cf382610e5f565b9150610cfe83610e5f565b9250827fffffffffffffffffffffffffffffffffffffffffffffffffffffffffffffffff03821115610d3357610d32610ed6565b5b828201905092915050565b6000610d4982610e5f565b9150610d5483610e5f565b925082610d6457610d63610f05565b5b828204905092915050565b6000610d7a82610e5f565b9150610d8583610e5f565b9250817fffffffffffffffffffffffffffffffffffffffffffffffffffffffffffffffff0483118215151615610dbe57610dbd610ed6565b5b828202905092915050565b6000610dd482610e5f565b9150610ddf83610e5f565b925082821015610df257610df1610ed6565b5b828203905092915050565b6000610e0882610e3f565b9050919050565b6000610e1a82610e3f565b9050919050565b60008115159050919050565b6000610e3882610dfd565b9050919050565b600073ffffffffffffffffffffffffffffffffffffffff82169050919050565b6000819050919050565b6000610e7482610e7b565b9050919050565b6000610e8682610e3f565b9050919050565b6000610e9882610e5f565b91507fffffffffffffffffffffffffffffffffffffffffffffffffffffffffffffffff821415610ecb57610eca610ed6565b5b600182019050919050565b7f4e487b7100000000000000000000000000000000000000000000000000000000600052601160045260246000fd5b7f4e487b7100000000000000000000000000000000000000000000000000000000600052601260045260246000fd5b7f596f7520646f6e74206861766520656e6f75676820657468657220746f20627560008201527f792074686973206e667400000000000000000000000000000000000000000000602082015250565b7f6974656d2068617320616c7265616479206265656e20736f6c64000000000000600082015250565b7f6974656d20646f65736e74206578697374000000000000000000000000000000600082015250565b7f5072696365204d7573742062652067726561746572207468616e203000000000600082015250565b7f5265656e7472616e637947756172643a207265656e7472616e742063616c6c00600082015250565b61103081610e2d565b811461103b57600080fd5b50565b61104781610e5f565b811461105257600080fd5b5056fea2646970667358221220cded19b730c7ff13fe7e1a377ca6a8996f1453bd3c666dfb3f0b31cee059332b64736f6c63430008040033",
  "linkReferences": {},
  "deployedLinkReferences": {}
}