{
  "_format": "hh-sol-artifact-1",
  "contractName": "NFT",
  "sourceName": "src/backend/contracts/NFT.sol",
  "abi": [
    {
      "inputs": [],
      "stateMutability": "nonpayable",
      "type": "constructor"
    },
    {
      "anonymous": false,
      "inputs": [
        {
          "indexed": true,
          "internalType": "address",
          "name": "owner",
          "type": "address"
        },
        {
          "indexed": true,
          "internalType": "address",
          "name": "approved",
          "type": "address"
        },
        {
          "indexed": true,
          "internalType": "uint256",
          "name": "tokenId",
          "type": "uint256"
        }
      ],
      "name": "Approval",
      "type": "event"
    },
    {
      "anonymous": false,
      "inputs": [
        {
          "indexed": true,
          "internalType": "address",
          "name": "owner",
          "type": "address"
        },
        {
          "indexed": true,
          "internalType": "address",
          "name": "operator",
          "type": "address"
        },
        {
          "indexed": false,
          "internalType": "bool",
          "name": "approved",
          "type": "bool"
        }
      ],
      "name": "ApprovalForAll",
      "type": "event"
    },
    {
      "anonymous": false,
      "inputs": [
        {
          "indexed": true,
          "internalType": "address",
          "name": "from",
          "type": "address"
        },
        {
          "indexed": true,
          "internalType": "address",
          "name": "to",
          "type": "address"
        },
        {
          "indexed": true,
          "internalType": "uint256",
          "name": "tokenId",
          "type": "uint256"
        }
      ],
      "name": "Transfer",
      "type": "event"
    },
    {
      "inputs": [
        {
          "internalType": "address",
          "name": "to",
          "type": "address"
        },
        {
          "internalType": "uint256",
          "name": "tokenId",
          "type": "uint256"
        }
      ],
      "name": "approve",
      "outputs": [],
      "stateMutability": "nonpayable",
      "type": "function"
    },
    {
      "inputs": [
        {
          "internalType": "address",
          "name": "owner",
          "type": "address"
        }
      ],
      "name": "balanceOf",
      "outputs": [
        {
          "internalType": "uint256",
          "name": "",
          "type": "uint256"
        }
      ],
      "stateMutability": "view",
      "type": "function"
    },
    {
      "inputs": [
        {
          "internalType": "uint256",
          "name": "tokenId",
          "type": "uint256"
        }
      ],
      "name": "getApproved",
      "outputs": [
        {
          "internalType": "address",
          "name": "",
          "type": "address"
        }
      ],
      "stateMutability": "view",
      "type": "function"
    },
    {
      "inputs": [
        {
          "internalType": "address",
          "name": "_addr",
          "type": "address"
        }
      ],
      "name": "getNftList",
      "outputs": [
        {
          "internalType": "uint256[]",
          "name": "",
          "type": "uint256[]"
        }
      ],
      "stateMutability": "view",
      "type": "function"
    },
    {
      "inputs": [
        {
          "internalType": "address",
          "name": "owner",
          "type": "address"
        },
        {
          "internalType": "address",
          "name": "operator",
          "type": "address"
        }
      ],
      "name": "isApprovedForAll",
      "outputs": [
        {
          "internalType": "bool",
          "name": "",
          "type": "bool"
        }
      ],
      "stateMutability": "view",
      "type": "function"
    },
    {
      "inputs": [
        {
          "internalType": "string",
          "name": "_tokenURI",
          "type": "string"
        }
      ],
      "name": "mint",
      "outputs": [
        {
          "internalType": "uint256",
          "name": "",
          "type": "uint256"
        }
      ],
      "stateMutability": "nonpayable",
      "type": "function"
    },
    {
      "inputs": [],
      "name": "name",
      "outputs": [
        {
          "internalType": "string",
          "name": "",
          "type": "string"
        }
      ],
      "stateMutability": "view",
      "type": "function"
    },
    {
      "inputs": [
        {
          "internalType": "uint256",
          "name": "tokenId",
          "type": "uint256"
        }
      ],
      "name": "ownerOf",
      "outputs": [
        {
          "internalType": "address",
          "name": "",
          "type": "address"
        }
      ],
      "stateMutability": "view",
      "type": "function"
    },
    {
      "inputs": [
        {
          "internalType": "address",
          "name": "from",
          "type": "address"
        },
        {
          "internalType": "address",
          "name": "to",
          "type": "address"
        },
        {
          "internalType": "uint256",
          "name": "tokenId",
          "type": "uint256"
        }
      ],
      "name": "safeTransferFrom",
      "outputs": [],
      "stateMutability": "nonpayable",
      "type": "function"
    },
    {
      "inputs": [
        {
          "internalType": "address",
          "name": "from",
          "type": "address"
        },
        {
          "internalType": "address",
          "name": "to",
          "type": "address"
        },
        {
          "internalType": "uint256",
          "name": "tokenId",
          "type": "uint256"
        },
        {
          "internalType": "bytes",
          "name": "_data",
          "type": "bytes"
        }
      ],
      "name": "safeTransferFrom",
      "outputs": [],
      "stateMutability": "nonpayable",
      "type": "function"
    },
    {
      "inputs": [
        {
          "internalType": "address",
          "name": "operator",
          "type": "address"
        },
        {
          "internalType": "bool",
          "name": "approved",
          "type": "bool"
        }
      ],
      "name": "setApprovalForAll",
      "outputs": [],
      "stateMutability": "nonpayable",
      "type": "function"
    },
    {
      "inputs": [
        {
          "internalType": "bytes4",
          "name": "interfaceId",
          "type": "bytes4"
        }
      ],
      "name": "supportsInterface",
      "outputs": [
        {
          "internalType": "bool",
          "name": "",
          "type": "bool"
        }
      ],
      "stateMutability": "view",
      "type": "function"
    },
    {
      "inputs": [],
      "name": "symbol",
      "outputs": [
        {
          "internalType": "string",
          "name": "",
          "type": "string"
        }
      ],
      "stateMutability": "view",
      "type": "function"
    },
    {
      "inputs": [],
      "name": "tokenCount",
      "outputs": [
        {
          "internalType": "uint256",
          "name": "",
          "type": "uint256"
        }
      ],
      "stateMutability": "view",
      "type": "function"
    },
    {
      "inputs": [
        {
          "internalType": "uint256",
          "name": "tokenId",
          "type": "uint256"
        }
      ],
      "name": "tokenURI",
      "outputs": [
        {
          "internalType": "string",
          "name": "",
          "type": "string"
        }
      ],
      "stateMutability": "view",
      "type": "function"
    },
    {
      "inputs": [
        {
          "internalType": "address",
          "name": "from",
          "type": "address"
        },
        {
          "internalType": "address",
          "name": "to",
          "type": "address"
        },
        {
          "internalType": "uint256",
          "name": "tokenId",
          "type": "uint256"
        }
      ],
      "name": "transferFrom",
      "outputs": [],
      "stateMutability": "nonpayable",
      "type": "function"
    },
    {
      "inputs": [
        {
          "internalType": "address",
          "name": "_from",
          "type": "address"
        },
        {
          "internalType": "uint256",
          "name": "_index",
          "type": "uint256"
        },
        {
          "internalType": "uint256",
          "name": "_tokenId",
          "type": "uint256"
        }
      ],
      "name": "updateNftList",
      "outputs": [],
      "stateMutability": "nonpayable",
      "type": "function"
    }
  ],
  "bytecode": "0x60806040523480156200001157600080fd5b506040518060400160405280600881526020017f44617070204e46540000000000000000000000000000000000000000000000008152506040518060400160405280600381526020017f4446540000000000000000000000000000000000000000000000000000000000815250816000908051906020019062000096929190620000b8565b508060019080519060200190620000af929190620000b8565b505050620001cd565b828054620000c69062000168565b90600052602060002090601f016020900481019282620000ea576000855562000136565b82601f106200010557805160ff191683800117855562000136565b8280016001018555821562000136579182015b828111156200013557825182559160200191906001019062000118565b5b50905062000145919062000149565b5090565b5b80821115620001645760008160009055506001016200014a565b5090565b600060028204905060018216806200018157607f821691505b602082108114156200019857620001976200019e565b5b50919050565b7f4e487b7100000000000000000000000000000000000000000000000000000000600052602260045260246000fd5b6131d880620001dd6000396000f3fe608060405234801561001057600080fd5b506004361061010b5760003560e01c806370a08231116100a2578063a22cb46511610071578063a22cb465146102ca578063b88d4fde146102e6578063c87b56dd14610302578063d85d3d2714610332578063e985e9c5146103625761010b565b806370a082311461022e5780638959d3971461025e57806395d89b411461028e5780639f181b5e146102ac5761010b565b806323b872dd116100de57806323b872dd146101aa5780633f0e4273146101c657806342842e0e146101e25780636352211e146101fe5761010b565b806301ffc9a71461011057806306fdde0314610140578063081812fc1461015e578063095ea7b31461018e575b600080fd5b61012a600480360381019061012591906120f8565b610392565b6040516101379190612609565b60405180910390f35b610148610474565b6040516101559190612624565b60405180910390f35b6101786004803603810190610173919061218b565b610506565b6040516101859190612580565b60405180910390f35b6101a860048036038101906101a3919061206d565b61058b565b005b6101c460048036038101906101bf9190611f67565b6106a3565b005b6101e060048036038101906101db91906120a9565b610703565b005b6101fc60048036038101906101f79190611f67565b6109d0565b005b6102186004803603810190610213919061218b565b6109f0565b6040516102259190612580565b60405180910390f35b61024860048036038101906102439190611f02565b610aa2565b6040516102559190612866565b60405180910390f35b61027860048036038101906102739190611f02565b610b5a565b60405161028591906125e7565b60405180910390f35b610296610bf1565b6040516102a39190612624565b60405180910390f35b6102b4610c83565b6040516102c19190612866565b60405180910390f35b6102e460048036038101906102df9190612031565b610c89565b005b61030060048036038101906102fb9190611fb6565b610c9f565b005b61031c6004803603810190610317919061218b565b610d01565b6040516103299190612624565b60405180910390f35b61034c6004803603810190610347919061214a565b610e53565b6040516103599190612866565b60405180910390f35b61037c60048036038101906103779190611f2b565b610ef7565b6040516103899190612609565b60405180910390f35b60007f80ac58cd000000000000000000000000000000000000000000000000000000007bffffffffffffffffffffffffffffffffffffffffffffffffffffffff1916827bffffffffffffffffffffffffffffffffffffffffffffffffffffffff1916148061045d57507f5b5e139f000000000000000000000000000000000000000000000000000000007bffffffffffffffffffffffffffffffffffffffffffffffffffffffff1916827bffffffffffffffffffffffffffffffffffffffffffffffffffffffff1916145b8061046d575061046c82610f8b565b5b9050919050565b60606000805461048390612af5565b80601f01602080910402602001604051908101604052809291908181526020018280546104af90612af5565b80156104fc5780601f106104d1576101008083540402835291602001916104fc565b820191906000526020600020905b8154815290600101906020018083116104df57829003601f168201915b5050505050905090565b600061051182610ff5565b610550576040517f08c379a0000000000000000000000000000000000000000000000000000000008152600401610547906127e6565b60405180910390fd5b6004600083815260200190815260200160002060009054906101000a900473ffffffffffffffffffffffffffffffffffffffff169050919050565b6000610596826109f0565b90508073ffffffffffffffffffffffffffffffffffffffff168373ffffffffffffffffffffffffffffffffffffffff161415610607576040517f08c379a00000000000000000000000000000000000000000000000000000000081526004016105fe90612826565b60405180910390fd5b8073ffffffffffffffffffffffffffffffffffffffff16610626611061565b73ffffffffffffffffffffffffffffffffffffffff16148061065557506106548161064f611061565b610ef7565b5b610694576040517f08c379a000000000000000000000000000000000000000000000000000000000815260040161068b90612726565b60405180910390fd5b61069e8383611069565b505050565b6106b46106ae611061565b82611122565b6106f3576040517f08c379a00000000000000000000000000000000000000000000000000000000081526004016106ea90612846565b60405180910390fd5b6106fe838383611200565b505050565b600061070e826109f0565b90503373ffffffffffffffffffffffffffffffffffffffff168173ffffffffffffffffffffffffffffffffffffffff161461077e576040517f08c379a000000000000000000000000000000000000000000000000000000000815260040161077590612706565b60405180910390fd5b6000600860008673ffffffffffffffffffffffffffffffffffffffff1673ffffffffffffffffffffffffffffffffffffffff168152602001908152602001600020805490509050600860008673ffffffffffffffffffffffffffffffffffffffff1673ffffffffffffffffffffffffffffffffffffffff1681526020019081526020016000206001826108119190612a0b565b81548110610848577f4e487b7100000000000000000000000000000000000000000000000000000000600052603260045260246000fd5b9060005260206000200154600860008773ffffffffffffffffffffffffffffffffffffffff1673ffffffffffffffffffffffffffffffffffffffff16815260200190815260200160002085815481106108ca577f4e487b7100000000000000000000000000000000000000000000000000000000600052603260045260246000fd5b9060005260206000200181905550600860008673ffffffffffffffffffffffffffffffffffffffff1673ffffffffffffffffffffffffffffffffffffffff16815260200190815260200160002080548061094d577f4e487b7100000000000000000000000000000000000000000000000000000000600052603160045260246000fd5b60019003818190600052602060002001600090559055600860003373ffffffffffffffffffffffffffffffffffffffff1673ffffffffffffffffffffffffffffffffffffffff1681526020019081526020016000208390806001815401808255809150506001900390600052602060002001600090919091909150555050505050565b6109eb83838360405180602001604052806000815250610c9f565b505050565b6000806002600084815260200190815260200160002060009054906101000a900473ffffffffffffffffffffffffffffffffffffffff169050600073ffffffffffffffffffffffffffffffffffffffff168173ffffffffffffffffffffffffffffffffffffffff161415610a99576040517f08c379a0000000000000000000000000000000000000000000000000000000008152600401610a9090612766565b60405180910390fd5b80915050919050565b60008073ffffffffffffffffffffffffffffffffffffffff168273ffffffffffffffffffffffffffffffffffffffff161415610b13576040517f08c379a0000000000000000000000000000000000000000000000000000000008152600401610b0a90612746565b60405180910390fd5b600360008373ffffffffffffffffffffffffffffffffffffffff1673ffffffffffffffffffffffffffffffffffffffff168152602001908152602001600020549050919050565b6060600860008373ffffffffffffffffffffffffffffffffffffffff1673ffffffffffffffffffffffffffffffffffffffff168152602001908152602001600020805480602002602001604051908101604052809291908181526020018280548015610be557602002820191906000526020600020905b815481526020019060010190808311610bd1575b50505050509050919050565b606060018054610c0090612af5565b80601f0160208091040260200160405190810160405280929190818152602001828054610c2c90612af5565b8015610c795780601f10610c4e57610100808354040283529160200191610c79565b820191906000526020600020905b815481529060010190602001808311610c5c57829003601f168201915b5050505050905090565b60075481565b610c9b610c94611061565b8383611467565b5050565b610cb0610caa611061565b83611122565b610cef576040517f08c379a0000000000000000000000000000000000000000000000000000000008152600401610ce690612846565b60405180910390fd5b610cfb848484846115d4565b50505050565b6060610d0c82610ff5565b610d4b576040517f08c379a0000000000000000000000000000000000000000000000000000000008152600401610d42906127c6565b60405180910390fd5b6000600660008481526020019081526020016000208054610d6b90612af5565b80601f0160208091040260200160405190810160405280929190818152602001828054610d9790612af5565b8015610de45780601f10610db957610100808354040283529160200191610de4565b820191906000526020600020905b815481529060010190602001808311610dc757829003601f168201915b505050505090506000610df5611630565b9050600081511415610e0b578192505050610e4e565b600082511115610e40578082604051602001610e2892919061255c565b60405160208183030381529060405292505050610e4e565b610e4984611647565b925050505b919050565b600060076000815480929190610e6890612b58565b9190505550610e79336007546116ee565b600860003373ffffffffffffffffffffffffffffffffffffffff1673ffffffffffffffffffffffffffffffffffffffff1681526020019081526020016000206007549080600181540180825580915050600190039060005260206000200160009091909190915055610eed6007548361170c565b6007549050919050565b6000600560008473ffffffffffffffffffffffffffffffffffffffff1673ffffffffffffffffffffffffffffffffffffffff16815260200190815260200160002060008373ffffffffffffffffffffffffffffffffffffffff1673ffffffffffffffffffffffffffffffffffffffff16815260200190815260200160002060009054906101000a900460ff16905092915050565b60007f01ffc9a7000000000000000000000000000000000000000000000000000000007bffffffffffffffffffffffffffffffffffffffffffffffffffffffff1916827bffffffffffffffffffffffffffffffffffffffffffffffffffffffff1916149050919050565b60008073ffffffffffffffffffffffffffffffffffffffff166002600084815260200190815260200160002060009054906101000a900473ffffffffffffffffffffffffffffffffffffffff1673ffffffffffffffffffffffffffffffffffffffff1614159050919050565b600033905090565b816004600083815260200190815260200160002060006101000a81548173ffffffffffffffffffffffffffffffffffffffff021916908373ffffffffffffffffffffffffffffffffffffffff160217905550808273ffffffffffffffffffffffffffffffffffffffff166110dc836109f0565b73ffffffffffffffffffffffffffffffffffffffff167f8c5be1e5ebec7d5bd14f71427d1e84f3dd0314c0f7b2291e5b200ac8c7c3b92560405160405180910390a45050565b600061112d82610ff5565b61116c576040517f08c379a0000000000000000000000000000000000000000000000000000000008152600401611163906126e6565b60405180910390fd5b6000611177836109f0565b90508073ffffffffffffffffffffffffffffffffffffffff168473ffffffffffffffffffffffffffffffffffffffff1614806111e657508373ffffffffffffffffffffffffffffffffffffffff166111ce84610506565b73ffffffffffffffffffffffffffffffffffffffff16145b806111f757506111f68185610ef7565b5b91505092915050565b8273ffffffffffffffffffffffffffffffffffffffff16611220826109f0565b73ffffffffffffffffffffffffffffffffffffffff1614611276576040517f08c379a000000000000000000000000000000000000000000000000000000000815260040161126d90612666565b60405180910390fd5b600073ffffffffffffffffffffffffffffffffffffffff168273ffffffffffffffffffffffffffffffffffffffff1614156112e6576040517f08c379a00000000000000000000000000000000000000000000000000000000081526004016112dd906126a6565b60405180910390fd5b6112f1838383611780565b6112fc600082611069565b6001600360008573ffffffffffffffffffffffffffffffffffffffff1673ffffffffffffffffffffffffffffffffffffffff168152602001908152602001600020600082825461134c9190612a0b565b925050819055506001600360008473ffffffffffffffffffffffffffffffffffffffff1673ffffffffffffffffffffffffffffffffffffffff16815260200190815260200160002060008282546113a39190612984565b92505081905550816002600083815260200190815260200160002060006101000a81548173ffffffffffffffffffffffffffffffffffffffff021916908373ffffffffffffffffffffffffffffffffffffffff160217905550808273ffffffffffffffffffffffffffffffffffffffff168473ffffffffffffffffffffffffffffffffffffffff167fddf252ad1be2c89b69c2b068fc378daa952ba7f163c4a11628f55a4df523b3ef60405160405180910390a4611462838383611785565b505050565b8173ffffffffffffffffffffffffffffffffffffffff168373ffffffffffffffffffffffffffffffffffffffff1614156114d6576040517f08c379a00000000000000000000000000000000000000000000000000000000081526004016114cd906126c6565b60405180910390fd5b80600560008573ffffffffffffffffffffffffffffffffffffffff1673ffffffffffffffffffffffffffffffffffffffff16815260200190815260200160002060008473ffffffffffffffffffffffffffffffffffffffff1673ffffffffffffffffffffffffffffffffffffffff16815260200190815260200160002060006101000a81548160ff0219169083151502179055508173ffffffffffffffffffffffffffffffffffffffff168373ffffffffffffffffffffffffffffffffffffffff167f17307eab39ab6107e8899845ad3d59bd9653f200f220920489ca2b5937696c31836040516115c79190612609565b60405180910390a3505050565b6115df848484611200565b6115eb8484848461178a565b61162a576040517f08c379a000000000000000000000000000000000000000000000000000000000815260040161162190612646565b60405180910390fd5b50505050565b606060405180602001604052806000815250905090565b606061165282610ff5565b611691576040517f08c379a000000000000000000000000000000000000000000000000000000000815260040161168890612806565b60405180910390fd5b600061169b611630565b905060008151116116bb57604051806020016040528060008152506116e6565b806116c584611921565b6040516020016116d692919061255c565b6040516020818303038152906040525b915050919050565b611708828260405180602001604052806000815250611ace565b5050565b61171582610ff5565b611754576040517f08c379a000000000000000000000000000000000000000000000000000000000815260040161174b90612786565b60405180910390fd5b8060066000848152602001908152602001600020908051906020019061177b929190611d26565b505050565b505050565b505050565b60006117ab8473ffffffffffffffffffffffffffffffffffffffff16611b29565b15611914578373ffffffffffffffffffffffffffffffffffffffff1663150b7a026117d4611061565b8786866040518563ffffffff1660e01b81526004016117f6949392919061259b565b602060405180830381600087803b15801561181057600080fd5b505af192505050801561184157506040513d601f19601f8201168201806040525081019061183e9190612121565b60015b6118c4573d8060008114611871576040519150601f19603f3d011682016040523d82523d6000602084013e611876565b606091505b506000815114156118bc576040517f08c379a00000000000000000000000000000000000000000000000000000000081526004016118b390612646565b60405180910390fd5b805181602001fd5b63150b7a0260e01b7bffffffffffffffffffffffffffffffffffffffffffffffffffffffff1916817bffffffffffffffffffffffffffffffffffffffffffffffffffffffff191614915050611919565b600190505b949350505050565b60606000821415611969576040518060400160405280600181526020017f30000000000000000000000000000000000000000000000000000000000000008152509050611ac9565b600082905060005b6000821461199b57808061198490612b58565b915050600a8261199491906129da565b9150611971565b60008167ffffffffffffffff8111156119dd577f4e487b7100000000000000000000000000000000000000000000000000000000600052604160045260246000fd5b6040519080825280601f01601f191660200182016040528015611a0f5781602001600182028036833780820191505090505b5090505b60008514611ac257600182611a289190612a0b565b9150600a85611a379190612ba1565b6030611a439190612984565b60f81b818381518110611a7f577f4e487b7100000000000000000000000000000000000000000000000000000000600052603260045260246000fd5b60200101907effffffffffffffffffffffffffffffffffffffffffffffffffffffffffffff1916908160001a905350600a85611abb91906129da565b9450611a13565b8093505050505b919050565b611ad88383611b4c565b611ae5600084848461178a565b611b24576040517f08c379a0000000000000000000000000000000000000000000000000000000008152600401611b1b90612646565b60405180910390fd5b505050565b6000808273ffffffffffffffffffffffffffffffffffffffff163b119050919050565b600073ffffffffffffffffffffffffffffffffffffffff168273ffffffffffffffffffffffffffffffffffffffff161415611bbc576040517f08c379a0000000000000000000000000000000000000000000000000000000008152600401611bb3906127a6565b60405180910390fd5b611bc581610ff5565b15611c05576040517f08c379a0000000000000000000000000000000000000000000000000000000008152600401611bfc90612686565b60405180910390fd5b611c1160008383611780565b6001600360008473ffffffffffffffffffffffffffffffffffffffff1673ffffffffffffffffffffffffffffffffffffffff1681526020019081526020016000206000828254611c619190612984565b92505081905550816002600083815260200190815260200160002060006101000a81548173ffffffffffffffffffffffffffffffffffffffff021916908373ffffffffffffffffffffffffffffffffffffffff160217905550808273ffffffffffffffffffffffffffffffffffffffff16600073ffffffffffffffffffffffffffffffffffffffff167fddf252ad1be2c89b69c2b068fc378daa952ba7f163c4a11628f55a4df523b3ef60405160405180910390a4611d2260008383611785565b5050565b828054611d3290612af5565b90600052602060002090601f016020900481019282611d545760008555611d9b565b82601f10611d6d57805160ff1916838001178555611d9b565b82800160010185558215611d9b579182015b82811115611d9a578251825591602001919060010190611d7f565b5b509050611da89190611dac565b5090565b5b80821115611dc5576000816000905550600101611dad565b5090565b6000611ddc611dd7846128a6565b612881565b905082815260208101848484011115611df457600080fd5b611dff848285612ab3565b509392505050565b6000611e1a611e15846128d7565b612881565b905082815260208101848484011115611e3257600080fd5b611e3d848285612ab3565b509392505050565b600081359050611e5481613146565b92915050565b600081359050611e698161315d565b92915050565b600081359050611e7e81613174565b92915050565b600081519050611e9381613174565b92915050565b600082601f830112611eaa57600080fd5b8135611eba848260208601611dc9565b91505092915050565b600082601f830112611ed457600080fd5b8135611ee4848260208601611e07565b91505092915050565b600081359050611efc8161318b565b92915050565b600060208284031215611f1457600080fd5b6000611f2284828501611e45565b91505092915050565b60008060408385031215611f3e57600080fd5b6000611f4c85828601611e45565b9250506020611f5d85828601611e45565b9150509250929050565b600080600060608486031215611f7c57600080fd5b6000611f8a86828701611e45565b9350506020611f9b86828701611e45565b9250506040611fac86828701611eed565b9150509250925092565b60008060008060808587031215611fcc57600080fd5b6000611fda87828801611e45565b9450506020611feb87828801611e45565b9350506040611ffc87828801611eed565b925050606085013567ffffffffffffffff81111561201957600080fd5b61202587828801611e99565b91505092959194509250565b6000806040838503121561204457600080fd5b600061205285828601611e45565b925050602061206385828601611e5a565b9150509250929050565b6000806040838503121561208057600080fd5b600061208e85828601611e45565b925050602061209f85828601611eed565b9150509250929050565b6000806000606084860312156120be57600080fd5b60006120cc86828701611e45565b93505060206120dd86828701611eed565b92505060406120ee86828701611eed565b9150509250925092565b60006020828403121561210a57600080fd5b600061211884828501611e6f565b91505092915050565b60006020828403121561213357600080fd5b600061214184828501611e84565b91505092915050565b60006020828403121561215c57600080fd5b600082013567ffffffffffffffff81111561217657600080fd5b61218284828501611ec3565b91505092915050565b60006020828403121561219d57600080fd5b60006121ab84828501611eed565b91505092915050565b60006121c0838361253e565b60208301905092915050565b6121d581612a3f565b82525050565b60006121e682612918565b6121f08185612946565b93506121fb83612908565b8060005b8381101561222c57815161221388826121b4565b975061221e83612939565b9250506001810190506121ff565b5085935050505092915050565b61224281612a51565b82525050565b600061225382612923565b61225d8185612957565b935061226d818560208601612ac2565b61227681612c8e565b840191505092915050565b600061228c8261292e565b6122968185612968565b93506122a6818560208601612ac2565b6122af81612c8e565b840191505092915050565b60006122c58261292e565b6122cf8185612979565b93506122df818560208601612ac2565b80840191505092915050565b60006122f8603283612968565b915061230382612c9f565b604082019050919050565b600061231b602583612968565b915061232682612cee565b604082019050919050565b600061233e601c83612968565b915061234982612d3d565b602082019050919050565b6000612361602483612968565b915061236c82612d66565b604082019050919050565b6000612384601983612968565b915061238f82612db5565b602082019050919050565b60006123a7602c83612968565b91506123b282612dde565b604082019050919050565b60006123ca601a83612968565b91506123d582612e2d565b602082019050919050565b60006123ed603883612968565b91506123f882612e56565b604082019050919050565b6000612410602a83612968565b915061241b82612ea5565b604082019050919050565b6000612433602983612968565b915061243e82612ef4565b604082019050919050565b6000612456602e83612968565b915061246182612f43565b604082019050919050565b6000612479602083612968565b915061248482612f92565b602082019050919050565b600061249c603183612968565b91506124a782612fbb565b604082019050919050565b60006124bf602c83612968565b91506124ca8261300a565b604082019050919050565b60006124e2602f83612968565b91506124ed82613059565b604082019050919050565b6000612505602183612968565b9150612510826130a8565b604082019050919050565b6000612528603183612968565b9150612533826130f7565b604082019050919050565b61254781612aa9565b82525050565b61255681612aa9565b82525050565b600061256882856122ba565b915061257482846122ba565b91508190509392505050565b600060208201905061259560008301846121cc565b92915050565b60006080820190506125b060008301876121cc565b6125bd60208301866121cc565b6125ca604083018561254d565b81810360608301526125dc8184612248565b905095945050505050565b6000602082019050818103600083015261260181846121db565b905092915050565b600060208201905061261e6000830184612239565b92915050565b6000602082019050818103600083015261263e8184612281565b905092915050565b6000602082019050818103600083015261265f816122eb565b9050919050565b6000602082019050818103600083015261267f8161230e565b9050919050565b6000602082019050818103600083015261269f81612331565b9050919050565b600060208201905081810360008301526126bf81612354565b9050919050565b600060208201905081810360008301526126df81612377565b9050919050565b600060208201905081810360008301526126ff8161239a565b9050919050565b6000602082019050818103600083015261271f816123bd565b9050919050565b6000602082019050818103600083015261273f816123e0565b9050919050565b6000602082019050818103600083015261275f81612403565b9050919050565b6000602082019050818103600083015261277f81612426565b9050919050565b6000602082019050818103600083015261279f81612449565b9050919050565b600060208201905081810360008301526127bf8161246c565b9050919050565b600060208201905081810360008301526127df8161248f565b9050919050565b600060208201905081810360008301526127ff816124b2565b9050919050565b6000602082019050818103600083015261281f816124d5565b9050919050565b6000602082019050818103600083015261283f816124f8565b9050919050565b6000602082019050818103600083015261285f8161251b565b9050919050565b600060208201905061287b600083018461254d565b92915050565b600061288b61289c565b90506128978282612b27565b919050565b6000604051905090565b600067ffffffffffffffff8211156128c1576128c0612c5f565b5b6128ca82612c8e565b9050602081019050919050565b600067ffffffffffffffff8211156128f2576128f1612c5f565b5b6128fb82612c8e565b9050602081019050919050565b6000819050602082019050919050565b600081519050919050565b600081519050919050565b600081519050919050565b6000602082019050919050565b600082825260208201905092915050565b600082825260208201905092915050565b600082825260208201905092915050565b600081905092915050565b600061298f82612aa9565b915061299a83612aa9565b9250827fffffffffffffffffffffffffffffffffffffffffffffffffffffffffffffffff038211156129cf576129ce612bd2565b5b828201905092915050565b60006129e582612aa9565b91506129f083612aa9565b925082612a00576129ff612c01565b5b828204905092915050565b6000612a1682612aa9565b9150612a2183612aa9565b925082821015612a3457612a33612bd2565b5b828203905092915050565b6000612a4a82612a89565b9050919050565b60008115159050919050565b60007fffffffff0000000000000000000000000000000000000000000000000000000082169050919050565b600073ffffffffffffffffffffffffffffffffffffffff82169050919050565b6000819050919050565b82818337600083830152505050565b60005b83811015612ae0578082015181840152602081019050612ac5565b83811115612aef576000848401525b50505050565b60006002820490506001821680612b0d57607f821691505b60208210811415612b2157612b20612c30565b5b50919050565b612b3082612c8e565b810181811067ffffffffffffffff82111715612b4f57612b4e612c5f565b5b80604052505050565b6000612b6382612aa9565b91507fffffffffffffffffffffffffffffffffffffffffffffffffffffffffffffffff821415612b9657612b95612bd2565b5b600182019050919050565b6000612bac82612aa9565b9150612bb783612aa9565b925082612bc757612bc6612c01565b5b828206905092915050565b7f4e487b7100000000000000000000000000000000000000000000000000000000600052601160045260246000fd5b7f4e487b7100000000000000000000000000000000000000000000000000000000600052601260045260246000fd5b7f4e487b7100000000000000000000000000000000000000000000000000000000600052602260045260246000fd5b7f4e487b7100000000000000000000000000000000000000000000000000000000600052604160045260246000fd5b6000601f19601f8301169050919050565b7f4552433732313a207472616e7366657220746f206e6f6e20455243373231526560008201527f63656976657220696d706c656d656e7465720000000000000000000000000000602082015250565b7f4552433732313a207472616e736665722066726f6d20696e636f72726563742060008201527f6f776e6572000000000000000000000000000000000000000000000000000000602082015250565b7f4552433732313a20746f6b656e20616c7265616479206d696e74656400000000600082015250565b7f4552433732313a207472616e7366657220746f20746865207a65726f2061646460008201527f7265737300000000000000000000000000000000000000000000000000000000602082015250565b7f4552433732313a20617070726f766520746f2063616c6c657200000000000000600082015250565b7f4552433732313a206f70657261746f7220717565727920666f72206e6f6e657860008201527f697374656e7420746f6b656e0000000000000000000000000000000000000000602082015250565b7f4f6e6c79206f776e65722063616e20757064617465204c697374000000000000600082015250565b7f4552433732313a20617070726f76652063616c6c6572206973206e6f74206f7760008201527f6e6572206e6f7220617070726f76656420666f7220616c6c0000000000000000602082015250565b7f4552433732313a2062616c616e636520717565727920666f7220746865207a6560008201527f726f206164647265737300000000000000000000000000000000000000000000602082015250565b7f4552433732313a206f776e657220717565727920666f72206e6f6e657869737460008201527f656e7420746f6b656e0000000000000000000000000000000000000000000000602082015250565b7f45524337323155524953746f726167653a2055524920736574206f66206e6f6e60008201527f6578697374656e7420746f6b656e000000000000000000000000000000000000602082015250565b7f4552433732313a206d696e7420746f20746865207a65726f2061646472657373600082015250565b7f45524337323155524953746f726167653a2055524920717565727920666f722060008201527f6e6f6e6578697374656e7420746f6b656e000000000000000000000000000000602082015250565b7f4552433732313a20617070726f76656420717565727920666f72206e6f6e657860008201527f697374656e7420746f6b656e0000000000000000000000000000000000000000602082015250565b7f4552433732314d657461646174613a2055524920717565727920666f72206e6f60008201527f6e6578697374656e7420746f6b656e0000000000000000000000000000000000602082015250565b7f4552433732313a20617070726f76616c20746f2063757272656e74206f776e6560008201527f7200000000000000000000000000000000000000000000000000000000000000602082015250565b7f4552433732313a207472616e736665722063616c6c6572206973206e6f74206f60008201527f776e6572206e6f7220617070726f766564000000000000000000000000000000602082015250565b61314f81612a3f565b811461315a57600080fd5b50565b61316681612a51565b811461317157600080fd5b50565b61317d81612a5d565b811461318857600080fd5b50565b61319481612aa9565b811461319f57600080fd5b5056fea26469706673582212209ff56001f9ff73142746c30f59e59a2df4830bca52bd6a516cd37a0362c9ea4964736f6c63430008040033",
  "linkReferences": {},
  "deployedLinkReferences": {}
}