{
  "_format": "hh-sol-artifact-1",
  "contractName": "NFT",
  "sourceName": "src/backend/contracts/NFT.sol",
  "abi": [
    {
      "inputs": [],
      "stateMutability": "nonpayable",
      "type": "constructor"
    },
    {
      "anonymous": false,
      "inputs": [
        {
          "indexed": true,
          "internalType": "address",
          "name": "owner",
          "type": "address"
        },
        {
          "indexed": true,
          "internalType": "address",
          "name": "approved",
          "type": "address"
        },
        {
          "indexed": true,
          "internalType": "uint256",
          "name": "tokenId",
          "type": "uint256"
        }
      ],
      "name": "Approval",
      "type": "event"
    },
    {
      "anonymous": false,
      "inputs": [
        {
          "indexed": true,
          "internalType": "address",
          "name": "owner",
          "type": "address"
        },
        {
          "indexed": true,
          "internalType": "address",
          "name": "operator",
          "type": "address"
        },
        {
          "indexed": false,
          "internalType": "bool",
          "name": "approved",
          "type": "bool"
        }
      ],
      "name": "ApprovalForAll",
      "type": "event"
    },
    {
      "anonymous": false,
      "inputs": [
        {
          "indexed": true,
          "internalType": "address",
          "name": "from",
          "type": "address"
        },
        {
          "indexed": true,
          "internalType": "address",
          "name": "to",
          "type": "address"
        },
        {
          "indexed": true,
          "internalType": "uint256",
          "name": "tokenId",
          "type": "uint256"
        }
      ],
      "name": "Transfer",
      "type": "event"
    },
    {
      "inputs": [
        {
          "internalType": "address",
          "name": "to",
          "type": "address"
        },
        {
          "internalType": "uint256",
          "name": "tokenId",
          "type": "uint256"
        }
      ],
      "name": "approve",
      "outputs": [],
      "stateMutability": "nonpayable",
      "type": "function"
    },
    {
      "inputs": [
        {
          "internalType": "address",
          "name": "owner",
          "type": "address"
        }
      ],
      "name": "balanceOf",
      "outputs": [
        {
          "internalType": "uint256",
          "name": "",
          "type": "uint256"
        }
      ],
      "stateMutability": "view",
      "type": "function"
    },
    {
      "inputs": [
        {
          "internalType": "uint256",
          "name": "tokenId",
          "type": "uint256"
        }
      ],
      "name": "getApproved",
      "outputs": [
        {
          "internalType": "address",
          "name": "",
          "type": "address"
        }
      ],
      "stateMutability": "view",
      "type": "function"
    },
    {
      "inputs": [
        {
          "internalType": "address",
          "name": "_addr",
          "type": "address"
        }
      ],
      "name": "getNftList",
      "outputs": [
        {
          "internalType": "uint256[]",
          "name": "",
          "type": "uint256[]"
        }
      ],
      "stateMutability": "view",
      "type": "function"
    },
    {
      "inputs": [
        {
          "internalType": "address",
          "name": "owner",
          "type": "address"
        },
        {
          "internalType": "address",
          "name": "operator",
          "type": "address"
        }
      ],
      "name": "isApprovedForAll",
      "outputs": [
        {
          "internalType": "bool",
          "name": "",
          "type": "bool"
        }
      ],
      "stateMutability": "view",
      "type": "function"
    },
    {
      "inputs": [
        {
          "internalType": "string",
          "name": "_tokenURI",
          "type": "string"
        }
      ],
      "name": "mint",
      "outputs": [
        {
          "internalType": "uint256",
          "name": "",
          "type": "uint256"
        }
      ],
      "stateMutability": "nonpayable",
      "type": "function"
    },
    {
      "inputs": [],
      "name": "name",
      "outputs": [
        {
          "internalType": "string",
          "name": "",
          "type": "string"
        }
      ],
      "stateMutability": "view",
      "type": "function"
    },
    {
      "inputs": [
        {
          "internalType": "uint256",
          "name": "tokenId",
          "type": "uint256"
        }
      ],
      "name": "ownerOf",
      "outputs": [
        {
          "internalType": "address",
          "name": "",
          "type": "address"
        }
      ],
      "stateMutability": "view",
      "type": "function"
    },
    {
      "inputs": [
        {
          "internalType": "address",
          "name": "from",
          "type": "address"
        },
        {
          "internalType": "address",
          "name": "to",
          "type": "address"
        },
        {
          "internalType": "uint256",
          "name": "tokenId",
          "type": "uint256"
        }
      ],
      "name": "safeTransferFrom",
      "outputs": [],
      "stateMutability": "nonpayable",
      "type": "function"
    },
    {
      "inputs": [
        {
          "internalType": "address",
          "name": "from",
          "type": "address"
        },
        {
          "internalType": "address",
          "name": "to",
          "type": "address"
        },
        {
          "internalType": "uint256",
          "name": "tokenId",
          "type": "uint256"
        },
        {
          "internalType": "bytes",
          "name": "_data",
          "type": "bytes"
        }
      ],
      "name": "safeTransferFrom",
      "outputs": [],
      "stateMutability": "nonpayable",
      "type": "function"
    },
    {
      "inputs": [
        {
          "internalType": "address",
          "name": "operator",
          "type": "address"
        },
        {
          "internalType": "bool",
          "name": "approved",
          "type": "bool"
        }
      ],
      "name": "setApprovalForAll",
      "outputs": [],
      "stateMutability": "nonpayable",
      "type": "function"
    },
    {
      "inputs": [
        {
          "internalType": "bytes4",
          "name": "interfaceId",
          "type": "bytes4"
        }
      ],
      "name": "supportsInterface",
      "outputs": [
        {
          "internalType": "bool",
          "name": "",
          "type": "bool"
        }
      ],
      "stateMutability": "view",
      "type": "function"
    },
    {
      "inputs": [],
      "name": "symbol",
      "outputs": [
        {
          "internalType": "string",
          "name": "",
          "type": "string"
        }
      ],
      "stateMutability": "view",
      "type": "function"
    },
    {
      "inputs": [],
      "name": "tokenCount",
      "outputs": [
        {
          "internalType": "uint256",
          "name": "",
          "type": "uint256"
        }
      ],
      "stateMutability": "view",
      "type": "function"
    },
    {
      "inputs": [
        {
          "internalType": "uint256",
          "name": "tokenId",
          "type": "uint256"
        }
      ],
      "name": "tokenURI",
      "outputs": [
        {
          "internalType": "string",
          "name": "",
          "type": "string"
        }
      ],
      "stateMutability": "view",
      "type": "function"
    },
    {
      "inputs": [
        {
          "internalType": "address",
          "name": "from",
          "type": "address"
        },
        {
          "internalType": "address",
          "name": "to",
          "type": "address"
        },
        {
          "internalType": "uint256",
          "name": "tokenId",
          "type": "uint256"
        }
      ],
      "name": "transferFrom",
      "outputs": [],
      "stateMutability": "nonpayable",
      "type": "function"
    }
  ],
  "bytecode": "0x60806040523480156200001157600080fd5b506040518060400160405280600881526020017f44617070204e46540000000000000000000000000000000000000000000000008152506040518060400160405280600381526020017f4446540000000000000000000000000000000000000000000000000000000000815250816000908051906020019062000096929190620000b8565b508060019080519060200190620000af929190620000b8565b505050620001cd565b828054620000c69062000168565b90600052602060002090601f016020900481019282620000ea576000855562000136565b82601f106200010557805160ff191683800117855562000136565b8280016001018555821562000136579182015b828111156200013557825182559160200191906001019062000118565b5b50905062000145919062000149565b5090565b5b80821115620001645760008160009055506001016200014a565b5090565b600060028204905060018216806200018157607f821691505b602082108114156200019857620001976200019e565b5b50919050565b7f4e487b7100000000000000000000000000000000000000000000000000000000600052602260045260246000fd5b612e2980620001dd6000396000f3fe608060405234801561001057600080fd5b50600436106101005760003560e01c80638959d39711610097578063b88d4fde11610066578063b88d4fde146102bf578063c87b56dd146102db578063d85d3d271461030b578063e985e9c51461033b57610100565b80638959d3971461023757806395d89b41146102675780639f181b5e14610285578063a22cb465146102a357610100565b806323b872dd116100d357806323b872dd1461019f57806342842e0e146101bb5780636352211e146101d757806370a082311461020757610100565b806301ffc9a71461010557806306fdde0314610135578063081812fc14610153578063095ea7b314610183575b600080fd5b61011f600480360381019061011a9190611db5565b61036b565b60405161012c91906122a3565b60405180910390f35b61013d61044d565b60405161014a91906122be565b60405180910390f35b61016d60048036038101906101689190611e48565b6104df565b60405161017a919061221a565b60405180910390f35b61019d60048036038101906101989190611d79565b610564565b005b6101b960048036038101906101b49190611c73565b61067c565b005b6101d560048036038101906101d09190611c73565b6106dc565b005b6101f160048036038101906101ec9190611e48565b6106fc565b6040516101fe919061221a565b60405180910390f35b610221600480360381019061021c9190611c0e565b6107ae565b60405161022e91906124e0565b60405180910390f35b610251600480360381019061024c9190611c0e565b610866565b60405161025e9190612281565b60405180910390f35b61026f6108fd565b60405161027c91906122be565b60405180910390f35b61028d61098f565b60405161029a91906124e0565b60405180910390f35b6102bd60048036038101906102b89190611d3d565b610995565b005b6102d960048036038101906102d49190611cc2565b6109ab565b005b6102f560048036038101906102f09190611e48565b610a0d565b60405161030291906122be565b60405180910390f35b61032560048036038101906103209190611e07565b610b5f565b60405161033291906124e0565b60405180910390f35b61035560048036038101906103509190611c37565b610c03565b60405161036291906122a3565b60405180910390f35b60007f80ac58cd000000000000000000000000000000000000000000000000000000007bffffffffffffffffffffffffffffffffffffffffffffffffffffffff1916827bffffffffffffffffffffffffffffffffffffffffffffffffffffffff1916148061043657507f5b5e139f000000000000000000000000000000000000000000000000000000007bffffffffffffffffffffffffffffffffffffffffffffffffffffffff1916827bffffffffffffffffffffffffffffffffffffffffffffffffffffffff1916145b80610446575061044582610c97565b5b9050919050565b60606000805461045c9061276f565b80601f01602080910402602001604051908101604052809291908181526020018280546104889061276f565b80156104d55780601f106104aa576101008083540402835291602001916104d5565b820191906000526020600020905b8154815290600101906020018083116104b857829003601f168201915b5050505050905090565b60006104ea82610d01565b610529576040517f08c379a000000000000000000000000000000000000000000000000000000000815260040161052090612460565b60405180910390fd5b6004600083815260200190815260200160002060009054906101000a900473ffffffffffffffffffffffffffffffffffffffff169050919050565b600061056f826106fc565b90508073ffffffffffffffffffffffffffffffffffffffff168373ffffffffffffffffffffffffffffffffffffffff1614156105e0576040517f08c379a00000000000000000000000000000000000000000000000000000000081526004016105d7906124a0565b60405180910390fd5b8073ffffffffffffffffffffffffffffffffffffffff166105ff610d6d565b73ffffffffffffffffffffffffffffffffffffffff16148061062e575061062d81610628610d6d565b610c03565b5b61066d576040517f08c379a0000000000000000000000000000000000000000000000000000000008152600401610664906123a0565b60405180910390fd5b6106778383610d75565b505050565b61068d610687610d6d565b82610e2e565b6106cc576040517f08c379a00000000000000000000000000000000000000000000000000000000081526004016106c3906124c0565b60405180910390fd5b6106d7838383610f0c565b505050565b6106f7838383604051806020016040528060008152506109ab565b505050565b6000806002600084815260200190815260200160002060009054906101000a900473ffffffffffffffffffffffffffffffffffffffff169050600073ffffffffffffffffffffffffffffffffffffffff168173ffffffffffffffffffffffffffffffffffffffff1614156107a5576040517f08c379a000000000000000000000000000000000000000000000000000000000815260040161079c906123e0565b60405180910390fd5b80915050919050565b60008073ffffffffffffffffffffffffffffffffffffffff168273ffffffffffffffffffffffffffffffffffffffff16141561081f576040517f08c379a0000000000000000000000000000000000000000000000000000000008152600401610816906123c0565b60405180910390fd5b600360008373ffffffffffffffffffffffffffffffffffffffff1673ffffffffffffffffffffffffffffffffffffffff168152602001908152602001600020549050919050565b6060600860008373ffffffffffffffffffffffffffffffffffffffff1673ffffffffffffffffffffffffffffffffffffffff1681526020019081526020016000208054806020026020016040519081016040528092919081815260200182805480156108f157602002820191906000526020600020905b8154815260200190600101908083116108dd575b50505050509050919050565b60606001805461090c9061276f565b80601f01602080910402602001604051908101604052809291908181526020018280546109389061276f565b80156109855780601f1061095a57610100808354040283529160200191610985565b820191906000526020600020905b81548152906001019060200180831161096857829003601f168201915b5050505050905090565b60075481565b6109a76109a0610d6d565b8383611173565b5050565b6109bc6109b6610d6d565b83610e2e565b6109fb576040517f08c379a00000000000000000000000000000000000000000000000000000000081526004016109f2906124c0565b60405180910390fd5b610a07848484846112e0565b50505050565b6060610a1882610d01565b610a57576040517f08c379a0000000000000000000000000000000000000000000000000000000008152600401610a4e90612440565b60405180910390fd5b6000600660008481526020019081526020016000208054610a779061276f565b80601f0160208091040260200160405190810160405280929190818152602001828054610aa39061276f565b8015610af05780601f10610ac557610100808354040283529160200191610af0565b820191906000526020600020905b815481529060010190602001808311610ad357829003601f168201915b505050505090506000610b0161133c565b9050600081511415610b17578192505050610b5a565b600082511115610b4c578082604051602001610b349291906121f6565b60405160208183030381529060405292505050610b5a565b610b5584611353565b925050505b919050565b600060076000815480929190610b74906127d2565b9190505550610b85336007546113fa565b600860003373ffffffffffffffffffffffffffffffffffffffff1673ffffffffffffffffffffffffffffffffffffffff1681526020019081526020016000206007549080600181540180825580915050600190039060005260206000200160009091909190915055610bf960075483611418565b6007549050919050565b6000600560008473ffffffffffffffffffffffffffffffffffffffff1673ffffffffffffffffffffffffffffffffffffffff16815260200190815260200160002060008373ffffffffffffffffffffffffffffffffffffffff1673ffffffffffffffffffffffffffffffffffffffff16815260200190815260200160002060009054906101000a900460ff16905092915050565b60007f01ffc9a7000000000000000000000000000000000000000000000000000000007bffffffffffffffffffffffffffffffffffffffffffffffffffffffff1916827bffffffffffffffffffffffffffffffffffffffffffffffffffffffff1916149050919050565b60008073ffffffffffffffffffffffffffffffffffffffff166002600084815260200190815260200160002060009054906101000a900473ffffffffffffffffffffffffffffffffffffffff1673ffffffffffffffffffffffffffffffffffffffff1614159050919050565b600033905090565b816004600083815260200190815260200160002060006101000a81548173ffffffffffffffffffffffffffffffffffffffff021916908373ffffffffffffffffffffffffffffffffffffffff160217905550808273ffffffffffffffffffffffffffffffffffffffff16610de8836106fc565b73ffffffffffffffffffffffffffffffffffffffff167f8c5be1e5ebec7d5bd14f71427d1e84f3dd0314c0f7b2291e5b200ac8c7c3b92560405160405180910390a45050565b6000610e3982610d01565b610e78576040517f08c379a0000000000000000000000000000000000000000000000000000000008152600401610e6f90612380565b60405180910390fd5b6000610e83836106fc565b90508073ffffffffffffffffffffffffffffffffffffffff168473ffffffffffffffffffffffffffffffffffffffff161480610ef257508373ffffffffffffffffffffffffffffffffffffffff16610eda846104df565b73ffffffffffffffffffffffffffffffffffffffff16145b80610f035750610f028185610c03565b5b91505092915050565b8273ffffffffffffffffffffffffffffffffffffffff16610f2c826106fc565b73ffffffffffffffffffffffffffffffffffffffff1614610f82576040517f08c379a0000000000000000000000000000000000000000000000000000000008152600401610f7990612300565b60405180910390fd5b600073ffffffffffffffffffffffffffffffffffffffff168273ffffffffffffffffffffffffffffffffffffffff161415610ff2576040517f08c379a0000000000000000000000000000000000000000000000000000000008152600401610fe990612340565b60405180910390fd5b610ffd83838361148c565b611008600082610d75565b6001600360008573ffffffffffffffffffffffffffffffffffffffff1673ffffffffffffffffffffffffffffffffffffffff16815260200190815260200160002060008282546110589190612685565b925050819055506001600360008473ffffffffffffffffffffffffffffffffffffffff1673ffffffffffffffffffffffffffffffffffffffff16815260200190815260200160002060008282546110af91906125fe565b92505081905550816002600083815260200190815260200160002060006101000a81548173ffffffffffffffffffffffffffffffffffffffff021916908373ffffffffffffffffffffffffffffffffffffffff160217905550808273ffffffffffffffffffffffffffffffffffffffff168473ffffffffffffffffffffffffffffffffffffffff167fddf252ad1be2c89b69c2b068fc378daa952ba7f163c4a11628f55a4df523b3ef60405160405180910390a461116e838383611491565b505050565b8173ffffffffffffffffffffffffffffffffffffffff168373ffffffffffffffffffffffffffffffffffffffff1614156111e2576040517f08c379a00000000000000000000000000000000000000000000000000000000081526004016111d990612360565b60405180910390fd5b80600560008573ffffffffffffffffffffffffffffffffffffffff1673ffffffffffffffffffffffffffffffffffffffff16815260200190815260200160002060008473ffffffffffffffffffffffffffffffffffffffff1673ffffffffffffffffffffffffffffffffffffffff16815260200190815260200160002060006101000a81548160ff0219169083151502179055508173ffffffffffffffffffffffffffffffffffffffff168373ffffffffffffffffffffffffffffffffffffffff167f17307eab39ab6107e8899845ad3d59bd9653f200f220920489ca2b5937696c31836040516112d391906122a3565b60405180910390a3505050565b6112eb848484610f0c565b6112f784848484611496565b611336576040517f08c379a000000000000000000000000000000000000000000000000000000000815260040161132d906122e0565b60405180910390fd5b50505050565b606060405180602001604052806000815250905090565b606061135e82610d01565b61139d576040517f08c379a000000000000000000000000000000000000000000000000000000000815260040161139490612480565b60405180910390fd5b60006113a761133c565b905060008151116113c757604051806020016040528060008152506113f2565b806113d18461162d565b6040516020016113e29291906121f6565b6040516020818303038152906040525b915050919050565b6114148282604051806020016040528060008152506117da565b5050565b61142182610d01565b611460576040517f08c379a000000000000000000000000000000000000000000000000000000000815260040161145790612400565b60405180910390fd5b80600660008481526020019081526020016000209080519060200190611487929190611a32565b505050565b505050565b505050565b60006114b78473ffffffffffffffffffffffffffffffffffffffff16611835565b15611620578373ffffffffffffffffffffffffffffffffffffffff1663150b7a026114e0610d6d565b8786866040518563ffffffff1660e01b81526004016115029493929190612235565b602060405180830381600087803b15801561151c57600080fd5b505af192505050801561154d57506040513d601f19601f8201168201806040525081019061154a9190611dde565b60015b6115d0573d806000811461157d576040519150601f19603f3d011682016040523d82523d6000602084013e611582565b606091505b506000815114156115c8576040517f08c379a00000000000000000000000000000000000000000000000000000000081526004016115bf906122e0565b60405180910390fd5b805181602001fd5b63150b7a0260e01b7bffffffffffffffffffffffffffffffffffffffffffffffffffffffff1916817bffffffffffffffffffffffffffffffffffffffffffffffffffffffff191614915050611625565b600190505b949350505050565b60606000821415611675576040518060400160405280600181526020017f300000000000000000000000000000000000000000000000000000000000000081525090506117d5565b600082905060005b600082146116a7578080611690906127d2565b915050600a826116a09190612654565b915061167d565b60008167ffffffffffffffff8111156116e9577f4e487b7100000000000000000000000000000000000000000000000000000000600052604160045260246000fd5b6040519080825280601f01601f19166020018201604052801561171b5781602001600182028036833780820191505090505b5090505b600085146117ce576001826117349190612685565b9150600a85611743919061281b565b603061174f91906125fe565b60f81b81838151811061178b577f4e487b7100000000000000000000000000000000000000000000000000000000600052603260045260246000fd5b60200101907effffffffffffffffffffffffffffffffffffffffffffffffffffffffffffff1916908160001a905350600a856117c79190612654565b945061171f565b8093505050505b919050565b6117e48383611858565b6117f16000848484611496565b611830576040517f08c379a0000000000000000000000000000000000000000000000000000000008152600401611827906122e0565b60405180910390fd5b505050565b6000808273ffffffffffffffffffffffffffffffffffffffff163b119050919050565b600073ffffffffffffffffffffffffffffffffffffffff168273ffffffffffffffffffffffffffffffffffffffff1614156118c8576040517f08c379a00000000000000000000000000000000000000000000000000000000081526004016118bf90612420565b60405180910390fd5b6118d181610d01565b15611911576040517f08c379a000000000000000000000000000000000000000000000000000000000815260040161190890612320565b60405180910390fd5b61191d6000838361148c565b6001600360008473ffffffffffffffffffffffffffffffffffffffff1673ffffffffffffffffffffffffffffffffffffffff168152602001908152602001600020600082825461196d91906125fe565b92505081905550816002600083815260200190815260200160002060006101000a81548173ffffffffffffffffffffffffffffffffffffffff021916908373ffffffffffffffffffffffffffffffffffffffff160217905550808273ffffffffffffffffffffffffffffffffffffffff16600073ffffffffffffffffffffffffffffffffffffffff167fddf252ad1be2c89b69c2b068fc378daa952ba7f163c4a11628f55a4df523b3ef60405160405180910390a4611a2e60008383611491565b5050565b828054611a3e9061276f565b90600052602060002090601f016020900481019282611a605760008555611aa7565b82601f10611a7957805160ff1916838001178555611aa7565b82800160010185558215611aa7579182015b82811115611aa6578251825591602001919060010190611a8b565b5b509050611ab49190611ab8565b5090565b5b80821115611ad1576000816000905550600101611ab9565b5090565b6000611ae8611ae384612520565b6124fb565b905082815260208101848484011115611b0057600080fd5b611b0b84828561272d565b509392505050565b6000611b26611b2184612551565b6124fb565b905082815260208101848484011115611b3e57600080fd5b611b4984828561272d565b509392505050565b600081359050611b6081612d97565b92915050565b600081359050611b7581612dae565b92915050565b600081359050611b8a81612dc5565b92915050565b600081519050611b9f81612dc5565b92915050565b600082601f830112611bb657600080fd5b8135611bc6848260208601611ad5565b91505092915050565b600082601f830112611be057600080fd5b8135611bf0848260208601611b13565b91505092915050565b600081359050611c0881612ddc565b92915050565b600060208284031215611c2057600080fd5b6000611c2e84828501611b51565b91505092915050565b60008060408385031215611c4a57600080fd5b6000611c5885828601611b51565b9250506020611c6985828601611b51565b9150509250929050565b600080600060608486031215611c8857600080fd5b6000611c9686828701611b51565b9350506020611ca786828701611b51565b9250506040611cb886828701611bf9565b9150509250925092565b60008060008060808587031215611cd857600080fd5b6000611ce687828801611b51565b9450506020611cf787828801611b51565b9350506040611d0887828801611bf9565b925050606085013567ffffffffffffffff811115611d2557600080fd5b611d3187828801611ba5565b91505092959194509250565b60008060408385031215611d5057600080fd5b6000611d5e85828601611b51565b9250506020611d6f85828601611b66565b9150509250929050565b60008060408385031215611d8c57600080fd5b6000611d9a85828601611b51565b9250506020611dab85828601611bf9565b9150509250929050565b600060208284031215611dc757600080fd5b6000611dd584828501611b7b565b91505092915050565b600060208284031215611df057600080fd5b6000611dfe84828501611b90565b91505092915050565b600060208284031215611e1957600080fd5b600082013567ffffffffffffffff811115611e3357600080fd5b611e3f84828501611bcf565b91505092915050565b600060208284031215611e5a57600080fd5b6000611e6884828501611bf9565b91505092915050565b6000611e7d83836121d8565b60208301905092915050565b611e92816126b9565b82525050565b6000611ea382612592565b611ead81856125c0565b9350611eb883612582565b8060005b83811015611ee9578151611ed08882611e71565b9750611edb836125b3565b925050600181019050611ebc565b5085935050505092915050565b611eff816126cb565b82525050565b6000611f108261259d565b611f1a81856125d1565b9350611f2a81856020860161273c565b611f3381612908565b840191505092915050565b6000611f49826125a8565b611f5381856125e2565b9350611f6381856020860161273c565b611f6c81612908565b840191505092915050565b6000611f82826125a8565b611f8c81856125f3565b9350611f9c81856020860161273c565b80840191505092915050565b6000611fb56032836125e2565b9150611fc082612919565b604082019050919050565b6000611fd86025836125e2565b9150611fe382612968565b604082019050919050565b6000611ffb601c836125e2565b9150612006826129b7565b602082019050919050565b600061201e6024836125e2565b9150612029826129e0565b604082019050919050565b60006120416019836125e2565b915061204c82612a2f565b602082019050919050565b6000612064602c836125e2565b915061206f82612a58565b604082019050919050565b60006120876038836125e2565b915061209282612aa7565b604082019050919050565b60006120aa602a836125e2565b91506120b582612af6565b604082019050919050565b60006120cd6029836125e2565b91506120d882612b45565b604082019050919050565b60006120f0602e836125e2565b91506120fb82612b94565b604082019050919050565b60006121136020836125e2565b915061211e82612be3565b602082019050919050565b60006121366031836125e2565b915061214182612c0c565b604082019050919050565b6000612159602c836125e2565b915061216482612c5b565b604082019050919050565b600061217c602f836125e2565b915061218782612caa565b604082019050919050565b600061219f6021836125e2565b91506121aa82612cf9565b604082019050919050565b60006121c26031836125e2565b91506121cd82612d48565b604082019050919050565b6121e181612723565b82525050565b6121f081612723565b82525050565b60006122028285611f77565b915061220e8284611f77565b91508190509392505050565b600060208201905061222f6000830184611e89565b92915050565b600060808201905061224a6000830187611e89565b6122576020830186611e89565b61226460408301856121e7565b81810360608301526122768184611f05565b905095945050505050565b6000602082019050818103600083015261229b8184611e98565b905092915050565b60006020820190506122b86000830184611ef6565b92915050565b600060208201905081810360008301526122d88184611f3e565b905092915050565b600060208201905081810360008301526122f981611fa8565b9050919050565b6000602082019050818103600083015261231981611fcb565b9050919050565b6000602082019050818103600083015261233981611fee565b9050919050565b6000602082019050818103600083015261235981612011565b9050919050565b6000602082019050818103600083015261237981612034565b9050919050565b6000602082019050818103600083015261239981612057565b9050919050565b600060208201905081810360008301526123b98161207a565b9050919050565b600060208201905081810360008301526123d98161209d565b9050919050565b600060208201905081810360008301526123f9816120c0565b9050919050565b60006020820190508181036000830152612419816120e3565b9050919050565b6000602082019050818103600083015261243981612106565b9050919050565b6000602082019050818103600083015261245981612129565b9050919050565b600060208201905081810360008301526124798161214c565b9050919050565b600060208201905081810360008301526124998161216f565b9050919050565b600060208201905081810360008301526124b981612192565b9050919050565b600060208201905081810360008301526124d9816121b5565b9050919050565b60006020820190506124f560008301846121e7565b92915050565b6000612505612516565b905061251182826127a1565b919050565b6000604051905090565b600067ffffffffffffffff82111561253b5761253a6128d9565b5b61254482612908565b9050602081019050919050565b600067ffffffffffffffff82111561256c5761256b6128d9565b5b61257582612908565b9050602081019050919050565b6000819050602082019050919050565b600081519050919050565b600081519050919050565b600081519050919050565b6000602082019050919050565b600082825260208201905092915050565b600082825260208201905092915050565b600082825260208201905092915050565b600081905092915050565b600061260982612723565b915061261483612723565b9250827fffffffffffffffffffffffffffffffffffffffffffffffffffffffffffffffff038211156126495761264861284c565b5b828201905092915050565b600061265f82612723565b915061266a83612723565b92508261267a5761267961287b565b5b828204905092915050565b600061269082612723565b915061269b83612723565b9250828210156126ae576126ad61284c565b5b828203905092915050565b60006126c482612703565b9050919050565b60008115159050919050565b60007fffffffff0000000000000000000000000000000000000000000000000000000082169050919050565b600073ffffffffffffffffffffffffffffffffffffffff82169050919050565b6000819050919050565b82818337600083830152505050565b60005b8381101561275a57808201518184015260208101905061273f565b83811115612769576000848401525b50505050565b6000600282049050600182168061278757607f821691505b6020821081141561279b5761279a6128aa565b5b50919050565b6127aa82612908565b810181811067ffffffffffffffff821117156127c9576127c86128d9565b5b80604052505050565b60006127dd82612723565b91507fffffffffffffffffffffffffffffffffffffffffffffffffffffffffffffffff8214156128105761280f61284c565b5b600182019050919050565b600061282682612723565b915061283183612723565b9250826128415761284061287b565b5b828206905092915050565b7f4e487b7100000000000000000000000000000000000000000000000000000000600052601160045260246000fd5b7f4e487b7100000000000000000000000000000000000000000000000000000000600052601260045260246000fd5b7f4e487b7100000000000000000000000000000000000000000000000000000000600052602260045260246000fd5b7f4e487b7100000000000000000000000000000000000000000000000000000000600052604160045260246000fd5b6000601f19601f8301169050919050565b7f4552433732313a207472616e7366657220746f206e6f6e20455243373231526560008201527f63656976657220696d706c656d656e7465720000000000000000000000000000602082015250565b7f4552433732313a207472616e736665722066726f6d20696e636f72726563742060008201527f6f776e6572000000000000000000000000000000000000000000000000000000602082015250565b7f4552433732313a20746f6b656e20616c7265616479206d696e74656400000000600082015250565b7f4552433732313a207472616e7366657220746f20746865207a65726f2061646460008201527f7265737300000000000000000000000000000000000000000000000000000000602082015250565b7f4552433732313a20617070726f766520746f2063616c6c657200000000000000600082015250565b7f4552433732313a206f70657261746f7220717565727920666f72206e6f6e657860008201527f697374656e7420746f6b656e0000000000000000000000000000000000000000602082015250565b7f4552433732313a20617070726f76652063616c6c6572206973206e6f74206f7760008201527f6e6572206e6f7220617070726f76656420666f7220616c6c0000000000000000602082015250565b7f4552433732313a2062616c616e636520717565727920666f7220746865207a6560008201527f726f206164647265737300000000000000000000000000000000000000000000602082015250565b7f4552433732313a206f776e657220717565727920666f72206e6f6e657869737460008201527f656e7420746f6b656e0000000000000000000000000000000000000000000000602082015250565b7f45524337323155524953746f726167653a2055524920736574206f66206e6f6e60008201527f6578697374656e7420746f6b656e000000000000000000000000000000000000602082015250565b7f4552433732313a206d696e7420746f20746865207a65726f2061646472657373600082015250565b7f45524337323155524953746f726167653a2055524920717565727920666f722060008201527f6e6f6e6578697374656e7420746f6b656e000000000000000000000000000000602082015250565b7f4552433732313a20617070726f76656420717565727920666f72206e6f6e657860008201527f697374656e7420746f6b656e0000000000000000000000000000000000000000602082015250565b7f4552433732314d657461646174613a2055524920717565727920666f72206e6f60008201527f6e6578697374656e7420746f6b656e0000000000000000000000000000000000602082015250565b7f4552433732313a20617070726f76616c20746f2063757272656e74206f776e6560008201527f7200000000000000000000000000000000000000000000000000000000000000602082015250565b7f4552433732313a207472616e736665722063616c6c6572206973206e6f74206f60008201527f776e6572206e6f7220617070726f766564000000000000000000000000000000602082015250565b612da0816126b9565b8114612dab57600080fd5b50565b612db7816126cb565b8114612dc257600080fd5b50565b612dce816126d7565b8114612dd957600080fd5b50565b612de581612723565b8114612df057600080fd5b5056fea2646970667358221220670fffc40f0b860c595bfbc6f5058e8de75b9a02a50df76b4e73219d9f90e84564736f6c63430008040033",
  "linkReferences": {},
  "deployedLinkReferences": {}
}